:100000000C9494250C94C5250C94C5250C94C525F9
:100010000C94C5250C94C5250C94C5250C94C525B8
:100020000C94C5250C94C5250C94C5250C94C525A8
:100030000C94C5250D949F120C94C5250C94C525D0
:100040000C94C5250C94D4B50C94C5250C94C525E9
:100050000C94C5250C94C5250C9493CE0D94570C87
:100060000C94C5250C94187D0C94C5250C94C525BD
:100070000C94C5250C94C5250C94C5250C94C52558
:100080000C94C5250C94C5250C94C5250C94C52548
:100090000C94C5250C94C5250C94C5250C94C52538
:1000A0000C94C5250C94C5250C94C5250C94C52528
:1000B0000C94C5250C94C5250C94C5250C94C52518
:1000C0000C94C5250C94C5250C94C5250C94C52508
:1000D0000C94C5250C94C5250C94C5250C94C525F8
:1000E0000C94C525275127513251325132513D517F
:1000F0003D513D5175516B516B516B51F2CE00CF5B
:100100001CCF2ACF44CF52CF6CCF70CF72CF76CFD7
:100110007ECFD5001B01FF001701FB001301D300A8
:10012000EB00EF00DF00F300F500D9000B01130135
:10013000E300E9001501ED00FD0009010701E700FA
:100140000D010F010101F7001901D7001101F100A4
:10015000E1000D010501E5000301084AD73B3BCE54
:10016000016E84BCBFFDC12F3D6C74319ABD5683B6
:100170003DDA3D00C77F11BED9E4BB4C3E916BAA6E
:10018000AABE000000803F05A84CCDB2D44EB938BD
:1001900036A9020C50B9918688083CA6AAAA2ABEA4
:1001A000000000803F000D94B50D0D948D0D0D9451
:1001B0005F0E0D94F20D0D94250F0D941B080D94F8
:1001C000CF0D0D946D0E0D94060E0D94770E0D94BB
:1001D000420E0D94100E0D94BD0D0D94460E0D940F
:1001E000C50D0D94690E0D94D90D0D94E30D0D946C
:1001F000570E0D9460070D94AB0D0D94490E0D94A0
:10020000970D0D94510E0D947B0E0D94730E0D945D
:100210003C0E0D94380E0D94FC0D0D94800E0D9433
:100220004D0E0D94650E0D94240E0D941A0E0D9422
:10023000A10D0D945B0E0D94920D01070E00FE0AA8
:10024000018A031E20FFFE0CFE0BFE0E0070321A08
:100250007A80808080808080008080293474A0A093
:10026000A0A0125A7A505050F85050F850505001F7
:100270006B7B1078949450381494947810026A7AB6
:100280006494987010203864A498026A7A304848C0
:100290004830649488986439147480808080204D3C
:1002A0007D10204040808080808040402010104D94
:1002B0007D80402020101010101020204080135707
:1002C0007720A8702070A820135777202020F820CE
:1002D0002020202474C0404080165171F8213373CF
:1002E00040E040006D7D04040808101010202040FC
:1002F000408080026A7A30488484848484844830D0
:10030000125A7A2060A0202020202020F8026A7A49
:10031000788484040808102040FC026A7AFC0408EF
:1003200010380404848478026A7A08182828484817
:1003300088FC0808026A7AFC8080F88404048484BB
:1003400078026A7A38408080B8C484848478026AEB
:100350007AFC040808101020204040026A7A788451
:100360008448304884848478026A7A788484848CCF
:10037000740484887022387840E040000040E040F7
:10038000212878C0C00000C0404080125979081070
:1003900020408040201008056474FC0000FC1259C5
:1003A00079804020100810204080026A7A78848486
:1003B00008101010001010026A7A38449CA4A4A4FB
:1003C000A49C403C026A7A3048848484FC848484FF
:1003D00084026A7AF0888488F088848488F0026ACB
:1003E0007A78848480808080848478026A7AF08835
:1003F00084848484848488F0026A7AFC808080F01B
:1004000080808080FC026A7AFC808080F08080801E
:100410008080026A7A78848480809C84848C7402D0
:100420006A7A84848484FC8484848484125A7AF86A
:100430002020202020202020F8026A7A1C080808AA
:10044000080808888870026A7A848890A0C0A09002
:10045000888484026A7A808080808080808080FCAA
:10046000026A7A84CCCCB4B48484848484026A7AA8
:100470008484C4C4A4948C8C8484026A7A7884842E
:1004800084848484848478026A7AF884848484F8F6
:1004900080808080006C7C788484848484E4948C64
:1004A000780804026A7AF884848484F890888484C2
:1004B000026A7A78848480601804848478027A7A64
:1004C000FE101010101010101010026A7A8484842C
:1004D00084848484848478026A7A84848484484806
:1004E00048303030125A7A888888888888A8A8A826
:1004F00050026A7A84844848303048488484125ACA
:100500007A88888850502020202020026A7AFC04B3
:1005100008101020404080FC204D7DF080808080BD
:1005200080808080808080F0006D7D8080404020D1
:100530002020101008080404104D7DF01010101039
:1005400010101010101010F00A637330488400610E
:1005500071FC2A33738040200267777884047C849E
:10056000847C026A7A808080B8C4848484C4B8029F
:10057000677778848080808478026A7A04040474BF
:100580008C8484848C74026777788484FC8084787B
:10059000026A7A18242020F820202020200069797F
:1005A000748888887040B88478026A7A808080B8BD
:1005B000C48484848484125A7A20200060202020FD
:1005C0002020F8105C7C0808001808080808088833
:1005D0008870026A7A8080808890A0E09088841277
:1005E0005A7A602020202020202020F8125777D02F
:1005F000A8A8A8A8A888026777B8C484848484843B
:1006000002677778848484848478006979B8C484A4
:100610008484C4B88080006979748C8484848C74E8
:100620000404026777B8C48480808080026777788A
:10063000844030088478026A7A202020F820202024
:1006400020241802677784848484848C74125777FA
:10065000888888505020201257778888A8A8A8A892
:1006600050026777848448304884840069798484A0
:1006700084848C74048478026777FC0810202040FE
:10068000FC204D7D30404040404080404040404054
:1006900030301D7D80808080808080808080808060
:1006A00080104D7DC02020202020102020202020E0
:1006B000C009647440A49408FFFFFFFFFFFFFFFF21
:1006C000FFFFFFFFFFFFFFFFFFFFFFFFFFFFFFFF3A
:1006D000FFFFFFFFFFFFFFFFFF0E0070321A7A805F
:1006E0008000808080808080800169792078A4A04B
:1006F000A0A0A4782012597930484040F04040F042
:1007000048046676847848487884125A7A8850502B
:1007100020F820F8202020321A7A80808080000083
:1007200080808080026B7B78844030488448300829
:1007300084781B42729090026B7B7884B4CCC4C4E2
:10074000C4CCB4847815587870887888986800F894
:10075000026777142850A0502814125474F808081F
:1007600008164171F0026B7B7884F4CCCCF4CCCCCD
:10077000CC84781B5171F8194474609090601256C3
:10078000762020F82020F8164777609010204080CF
:10079000F0164777609010601090602A3373204005
:1007A0008010587888888888D8A88080105C7C78E9
:1007B000A8A8A8A8682828282828383711718020D8
:1007C000237340408026377740C040404040E016C9
:1007D00046766090906000F0026777A05028142859
:1007E00050A0026A7A40C4484850242C549C840289
:1007F0006A7A40C4484850283444889C026A7AC4C3
:10080000244830D0244C549C04006B7B20200020D2
:1008100020202040848478026C7C201000304884A2
:1008200084FC84848484026C7C102000304884849E
:10083000FC84848484026C7C30480030488484FCCE
:1008400084848484026C7C64980030488484FC84B2
:10085000848484026B7B480030488484FC848484D4
:1008600084026B7B304830488484FC848484840216
:100870006A7A3C509090FC909090909C006C7C78B0
:100880008484808080808484781020026C7C201096
:1008900000FC808080F8808080FC026C7C1020004E
:1008A000FC808080F8808080FC026C7C304800FCFA
:1008B000808080F8808080FC026B7B4800FC808018
:1008C00080F8808080FC125C7C402000F820202092
:1008D00020202020F8125C7C102000F8202020200E
:1008E000202020F8125C7C205000F82020202020BE
:1008F0002020F8125B7B5000F820202020202020B0
:10090000F8027A7A78444242F24242424478026CD7
:100910007C649800C4C4A4A49494948C8C026C7CD1
:10092000201000788484848484848478026C7C1011
:100930002000788484848484848478026C7C3048A9
:1009400000788484848484848478026C7C64980035
:10095000788484848484848478026B7B48007884DF
:10096000848484848484780277778244281028449D
:1009700082006E7E0404788C949494A4A4A4C47819
:100980008080026C7C20100084848484848484842D
:1009900078026C7C1020008484848484848484782D
:1009A000026C7C304800848484848484848478024B
:1009B0006B7B4800848484848484848478125C7C87
:1009C000102000888850502020202020026A7A8041
:1009D00080F884848484F88080026A7A30484848A9
:1009E0007048444444F8026A7A2010007884047CF9
:1009F00084847C026A7A0810007884047C84847C75
:100A0000026A7A3048007884047C84847C026A7AA2
:100A10006498007884047C84847C02697948007836
:100A200084047C84847C026B7B30483000788404AE
:100A30007C84847C0277777C92325E90927C006921
:100A400079788480808084781020026A7A2010006F
:100A5000788484FC808478026A7A10200078848408
:100A6000FC808478026A7A304800788484FC808430
:100A7000780269794800788484FC808478125A7AF4
:100A8000402000602020202020F8125A7A102000F8
:100A9000602020202020F8125A7A609000602020E8
:100AA000202020F81259795000602020202020F8C2
:100AB000125B7B5020500878888888888870026A8A
:100AC0007A649800B8C48484848484026A7A20108A
:100AD0000078848484848478026A7A102000788480
:100AE0008484848478026A7A304800788484848498
:100AF0008478026A7A649800788484848484780292
:100B0000697948007884848484847802657530002B
:100B1000FC0030006B7B0408789494A4A4C4788013
:100B200080026A7A20100084848484848C74026A2F
:100B30007A10200084848484848C74026A7A304819
:100B40000084848484848C74026979480084848459
:100B500084848C74006C7C10200084844448283881
:100B6000109060006C7C808080B8C4848484C4B899
:100B70008080006B7B480084844448283810906053
:100B800001050800FF060121023520FFFF07FF06CF
:100B9000FF09005022165680808080008015335354
:100BA000A0A0A00257575050F850F8505002575785
:100BB0002070A07028702013355580A040A020021E
:100BC000475740A0A040A0A050251353808080121A
:100BD000265640808080804012265680404040400B
:100BE000800245559060F060900255552020F82015
:100BF00020113353604080044151F011335340E0E1
:100C00004002465610102040808012365640A0A068
:100C1000A0A04012365640C0404040E00246566018
:100C200090106080F0024656F020601090600246FE
:100C3000562060A0F02020024656F080E010906020
:100C40000246566080E0909060024656F0102020E8
:100C50004040024656609060909060024656609018
:100C600090701060122555C0C000C0C0113656608B
:100C70006000604080123656204080804020034350
:100C800053F000F012365680402020408012365635
:100C900040A020400040015858304898A8A89040F3
:100CA00030024656609090F09090024656E090E0F8
:100CB0009090E0024656609080809060024656E038
:100CC00090909090E0024656F080E08080F00246DE
:100CD00056F080E0808080024656609080B0906040
:100CE0000246569090F0909090123656E040404068
:100CF00040E002465670202020A04002465690A0B8
:100D0000C0A0A0900246568080808080F0024656A7
:100D100090F0F090909002465690D0F0B0B09002D3
:100D20004656609090909060024656E09090E08029
:100D300080014757609090D0B06010024656E09016
:100D400090E0909002465660904020906012365697
:100D5000E0404040404002465690909090906002A3
:100D60004656909090906060024656909090F0F0B9
:100D70009002465690906060909002565688885037
:100D8000202020024656F010204080F0123656E017
:100D900080808080E002465680804020101012360D
:100DA00056E020202020E016325240A0014151F0B0
:100DB0001622528040024454709090700246568031
:100DC00080E09090E01234546080806002465610BB
:100DD000107090907002445460B0C060024656207B
:100DE0005040E0404001455560907010600246560A
:100DF0008080E09090901236564000C04040E01154
:100E000037572000202020A040024656808090E0E6
:100E10009090123656C040404040E0025454D0A852
:100E2000A8A8024454E090909002445460909060CE
:100E3000014555E090E0808001455570907010109C
:100E4000024454A0D0808012345460C020C00246B6
:100E5000564040E04050200244549090907012342C
:100E600054A0A0A04002545488A8A8500244549012
:100E70006060900145559090709060024454F0205D
:100E800040F0024757304020C020403022165680A4
:100E90008080808080024757C02040304020C006BC
:100EA000425250A0FFFFFFFFFFFFFFFFFFFFFFFFCA
:100EB000FFFFFFFFFFFFFFFFFFFFFFFFFFFFFFFF42
:100EC000FFFFFFFFFF090050221656800080808040
:100ED000800146562070A0A070200246562050E0A7
:100EE0004050A00255558870507088025656885060
:100EF000F820F820221757808080008080800247E9
:100F0000577080E0907010E0173151A00256567073
:100F1000A8C8C8A87014355560A06000E00343530A
:100F200050A050123353E02020143151E0025656A5
:100F300070E8D8E8D870173151E015335340A0401D
:100F400012355540E04000E014355540A02040E007
:100F5000143555C020C020C016225240800145558E
:100F6000909090E08002565678E8E868282824118E
:100F70005180112252408014355540C04040E01449
:100F8000355540A04000E0034353A050A00247570E
:100F9000808080A060F0200247578080A0D0102081
:100FA0007002475780408060A0F020123656400003
:100FB0004080A04002475740206090F09090024748
:100FC0005720406090F0909002475760906090F0FA
:100FD000909002475750A06090F090900247579031
:100FE000006090F0909002475760906090F0909071
:100FF00002465670A0A0F0A0B001475760908080D4
:101000009060400247574020F080E080F002475750
:101010002040F080E080F00247576090F080E08050
:10102000F00247579000F080E080F0123757804080
:10103000E0404040E01237572040E0404040E0129E
:10104000375740A0E0404040E0123757A000E04052
:101050004040E00256567048E848487002475750F2
:10106000A090D0B090900247574020609090906040
:101070000247572040609090906002475760906010
:101080009090906002475750A06090909060024707
:101090005790006090909060123353A040A0024699
:1010A0005670B0B0D0D0E00247574020909090905A
:1010B00060024757204090909090600247576090A0
:1010C00090909090600247579000909090906002AE
:1010D00057571020885020202002465680E09090DC
:1010E000E0800246566090A0A090A00247574020A2
:1010F00000709090700247572040007090907002EE
:1011000047572050007090907002475750A00070D1
:101110009090700246565000709090700247576051
:10112000906070909070025454F068B0781135550A
:10113000608080604002475740200060B0C060027D
:10114000475720400060B0C0600247576090006081
:10115000B0C060024656500060B0C0601237578081
:101160004000C04040E0123757204000C04040E0FF
:1011700012375740A000C04040E0123656A000C0D1
:101180004040E0024757A040A010709060024757CF
:1011900050A000E09090900247574020006090904F
:1011A000600247572040006090906002475760906F
:1011B000006090906002475750A0006090906002DD
:1011C00046569000609090601235554000E0004017
:1011D00002445470B0D0E0024757402000909090F5
:1011E00070024757204000909090700247576090DF
:1011F0000090909070024656900090909070014838
:101200005820400090907090600147578080E09097
:10121000E080800147579000909070906043616E2D
:101220006E6F7420656E7465722073756264697286
:101230003A20004D3234004D323320257300617561
:10124000746F25692E67006572726F7220777269FC
:1012500074696E6720746F2066696C65004E6F74E8
:10126000205344207072696E74696E67002F0053BA
:1012700044207072696E74696E67206279746520AB
:10128000002E0044656C6574696F6E206661696C40
:1012900065642C2046696C653A200046696C6520BF
:1012A00064656C657465643A002E006F70656E202D
:1012B0006661696C65642C2046696C653A2000574C
:1012C000726974696E6720746F2066696C653A2074
:1012D000002E006F70656E206661696C65642C205D
:1012E00046696C653A20002E006F70656E2066615D
:1012F000696C65642C2046696C653A200046696C0F
:10130000652073656C6563746564002053697A6554
:101310003A200046696C65206F70656E65643A20FE
:10132000002E006F70656E206661696C65642C200C
:1013300046696C653A20004E6F7720667265736867
:101340002066696C653A20004E6F7720646F696E85
:10135000672066696C653A20002220706F73002256
:1013600020706172656E743A2200535542524F5597
:1013700054494E452043414C4C207461726765745A
:101380003A2200747279696E6720746F2063616C11
:101390006C207375622D67636F64652066696C6588
:1013A00073207769746820746F6F206D616E792087
:1013B0006C6576656C732E204D4158206C657665A2
:1013C0006C2069733A0053442063617264206F6B30
:1013D000006F70656E526F6F74206661696C656432
:1013E00000766F6C756D652E696E69742066616933
:1013F0006C656400534420696E6974206661696C91
:101400000048617264636F64656420446566617559
:101410006C742053657474696E6773204C6F6164DB
:1014200065640053746F7265642073657474696ECB
:101430006773207265747269657665640020643A2A
:10144000200020623A2000613A200045716E20633E
:101450006F656666696369656E74733A002044005F
:101460002049002020204D33303120500050494485
:101470002073657474696E67733A00205A002059AE
:101480000020204D323036205800486F6D65206FA7
:10149000666673657420286D6D293A00204500202A
:1014A0005A0020580020420020540020204D3230A5
:1014B00035205300416476616E6365642076617205
:1014C0006961626C65733A20533D4D696E206665B3
:1014D00065647261746520286D6D2F73292C20540A
:1014E0003D4D696E2074726176656C206665656439
:1014F0007261746520286D6D2F73292C20423D6D1B
:10150000696E696D756D207365676D656E742074A5
:10151000696D6520286D73292C20583D6D617869AF
:101520006D756D205859206A65726B20286D6D2F7E
:1015300073292C20205A3D6D6178696D756D205A94
:10154000206A65726B20286D6D2F73292C20204531
:101550003D6D6178696D756D2045206A65726B20FF
:10156000286D6D2F73290020540020204D32303417
:10157000205300416363656C65726174696F6E3AF4
:1015800020533D616363656C65726174696F6E2C95
:1015900020543D7265747261637420616363656C8D
:1015A00065726174696F6E00204500205A002059F1
:1015B0000020204D3230312058004D6178696D7522
:1015C0006D20416363656C65726174696F6E20287C
:1015D0006D6D2F7332293A00204500205A002059A2
:1015E0000020204D3230332058004D6178696D75F0
:1015F0006D2066656564726174657320286D6D2F5A
:1016000073293A00204500205A0020590020204D1F
:1016100039322058005374657073207065722075DC
:101620006E69743A0053657474696E6773205374FD
:101630006F7265640053544F505045442E20005043
:1016400072696E7465722073746F70706564206463
:10165000756520746F206572726F72732E204669F3
:101660007820746865206572726F7220616E6420E4
:10167000757365204D39393920746F207265737424
:101680006172742E202854656D7065726174757274
:10169000652069732072657365742E20536574200C
:1016A0006974206166746572207265737461727406
:1016B000696E6729004B494C4C45442E20005072FE
:1016C000696E7465722068616C7465642E206B6944
:1016D0006C6C28292063616C6C656421006F6B0061
:1016E000526573656E643A20000A00207A3A200041
:1016F00020793A200020783A2000426564002200D8
:10170000556E6B6E6F776E20636F6D6D616E643AB0
:10171000202200446179647265616D696E672E2EC6
:101720002E00507265737320746F20726573756D2F
:1017300065005A204F6666736574203A20007A5F10
:101740006D61783A20007A5F6D696E3A20005A2008
:101750004F6666736574005A204F66667365742021
:101760006F6B006C636420636F6E747261737420BE
:1017700076616C75653A20007A5F6D61783A200079
:101780007A5F70726F62653A20007A5F6D696E3AB7
:101790002000795F6D61783A2000795F6D696E3A5B
:1017A0002000785F6D61783A2000785F6D696E3A4D
:1017B0002000204170707278204C617965723A0087
:1017C000205A3A0020593A0020436F756E74205811
:1017D0003A200020453A00205A3A0020593A005851
:1017E0003A004649524D574152455F4E414D453AA8
:1017F0004D61726C696E20312E302E322E313920BF
:101800004C756C7A426F7420534F555243455F4379
:101810004F44455F55524C3A68747470733A2F2F99
:10182000636F64652E616C6570686F626A6563746E
:10183000732E636F6D2F646966667573696F6E2FA3
:101840004D41524C494E2F2050524F544F434F4C14
:101850005F56455253494F4E3A312E30204D414349
:1018600048494E455F545950453A4C756C7A426F21
:10187000742054415A2036204558545255444552FC
:101880005F434F554E543A3120555549443A383408
:101890003566303033632D616562642D34653533D0
:1018A0002D613662392D37643039383466646536D7
:1018B00030390A004C756C7A426F742054415A20BA
:1018C00036204F66662E004C756C7A426F74205439
:1018D000415A20362072656164792E004265642089
:1018E000436F6F6C696E6720646F6E652E00426592
:1018F000642048656174696E6720646F6E652E00B0
:1019000020573A0020423A0020453A00543A00421B
:10191000656420436F6F6C696E672E2E2E004265E2
:10192000642048656174696E672E2E2E00436F6FC8
:101930006C696E6720646F6E652E0048656174691E
:101940006E6720646F6E652E0020573A0020453A7E
:1019500000543A00436F6F6C696E672E2E2E00485C
:10196000656174696E672E2E2E002042403A002079
:10197000403A00202F003A00205400202F0020423F
:101980003A00202F006F6B20543A000A0A0053746B
:10199000616E6461726420446576696174696F6E1A
:1019A0003A20000A004D65616E3A20000A002020AE
:1019B000207A3A200000793A2000783A20003F53FC
:1019C0007065636966696564206E756D6265722015
:1019D0006F66206C65677320696E206D6F76656D2C
:1019E000656E74206E6F7420706C61757361626CCB
:1019F000652E0A003F537065636966696564205906
:101A000020706F736974696F6E206F7574206F66D4
:101A10002072616E67652E0A003F537065636966C8
:101A2000696564205820706F736974696F6E206FE8
:101A30007574206F662072616E67652E0A003F53D1
:101A400070656369666965642073616D706C65209B
:101A500073697A65206E6F7420706C617573616252
:101A60006C652E0A0046756C6C20737570706F7211
:101A7000742061743A20687474703A2F2F33647044
:101A800072696E74626F6172642E636F6D2F666F20
:101A900072756D2E7068700A004D3438205A2D50C2
:101AA000726F6265205265706561746162696C690C
:101AB000747920746573742E2020205665727369C2
:101AC0006F6E20322E30300A003F566572626F739F
:101AD00065204C6576656C206E6F7420706C617546
:101AE0007361626C652E0A002569206D696E2C2079
:101AF00025692073656300456E642066696C652006
:101B00006C69737400426567696E2066696C652054
:101B10006C697374004E6F206D6F76652E004C7586
:101B20006C7A426F742054415A2036207265616489
:101B3000792E00526573756D696E67207072696EDB
:101B400074005761697420666F7220757365722E18
:101B50002E2E000A00205A3A200020593A20002058
:101B6000583A20004265640050726F62696E6720C7
:101B7000646F6E65210020643A200020623A2000E4
:101B800045716E20636F656666696369656E74731F
:101B90003A20613A200050524F4245204641494C7C
:101BA00020434C45414E204E4F5A5A4C450050520E
:101BB0004F4245204641494C20434C45414E204E22
:101BC0004F5A5A4C45004175746F206C6576656CB0
:101BD000696E6700486F6D6520582F5920626566F1
:101BE0006F7265205A00486F6D6520582F5920622A
:101BF00065666F7265205A005A2070726F626520A8
:101C00006F75742E20626564005A2070726F626571
:101C1000206F75742E2062656400486F6D652058D2
:101C20002F59206265666F7265205A00486F6D6596
:101C300020582F59206265666F7265205A00206413
:101C40003A200020623A200045716E20636F65667D
:101C500066696369656E74733A20613A2000446175
:101C600079647265616D696E672E2E2E00526577FC
:101C70006970696E67005265776970696E670025E3
:101C80006920686F757273202569206D696E75749F
:101C9000657300446F6E65207072696E74696E675B
:101CA0002066696C65004C756C7A426F74205441F3
:101CB0005A20362072656164792E0053544F50507B
:101CC00045442E20005072696E7465722073746FE3
:101CD000707065642064756520746F206572726F22
:101CE00072732E2046697820746865206572726F61
:101CF0007220616E6420757365204D393939207406
:101D00006F20726573746172742E202854656D7033
:101D1000657261747572652069732072657365748C
:101D20002E20536574206974206166746572207278
:101D3000657374617274696E6729004E6F204C6917
:101D40006E65204E756D62657220776974682063D8
:101D50006865636B73756D2C204C617374204C69DE
:101D60006E653A20004E6F20436865636B73756D36
:101D70002077697468206C696E65206E756D626588
:101D8000722C204C617374204C696E653A2000639C
:101D90006865636B73756D206D69736D61746368DD
:101DA0002C204C617374204C696E653A20004C699C
:101DB0006E65204E756D626572206973206E6F745A
:101DC000204C617374204C696E65204E756D6265A0
:101DD000722B312C204C617374204C696E653A2053
:101DE000004D31313000446F6E6520736176696E4D
:101DF000672066696C652E006F6B004D32390020DC
:101E000020506C616E6E65724275666665724279CD
:101E10007465733A20002046726565204D656D6FCC
:101E200072793A20004170722032372032303137D7
:101E300000436F6D70696C65643A2000286E6F6EA8
:101E4000652C2064656661756C7420636F6E6669CD
:101E5000672900207C20417574686F723A20004128
:101E6000707220323720323031372031323A3132FD
:101E70003A323700204C6173742055706461746588
:101E8000643A2000312E302E322E3139004D6172ED
:101E90006C696E0020536F667477617265205265BD
:101EA00073657400205761746368646F67205265BE
:101EB000736574002042726F776E206F75742052C4
:101EC00065736574002045787465726E616C20528C
:101ED0006573657400506F77657255700073746137
:101EE0007274002200656E717565696E672022004C
:101EF0002200656E717565696E67202200FF01FF23
:101F00000000A0400000A040000000400000A043EE
:101F10000080A143000087430000A0C100809743D8
:101F200000000000000096430080974300008743B4
:101F30000000A0C10000A0C1000000006563686F40
:101F40003A004572726F723A0020746F6F206C6FA6
:101F50006E6720657874727573696F6E2070726534
:101F600076656E7465640020636F6C6420657874B8
:101F7000727573696F6E2070726576656E746564D4
:101F80000000002110422063308440A550C660E765
:101F900070088129914AA16BB18CC1ADD1CEE1EF1E
:101FA000F13112100273325222B5529442F772D6B6
:101FB00062399318837BB35AA3BDD39CC3FFF3DE6E
:101FC000E36224433420040114E664C774A4448506
:101FD000546AA54BB528850995EEE5CFF5ACC58DBE
:101FE000D55336722611163006D776F6669556B456
:101FF000465BB77AA719973887DFF7FEE79DD7BC0E
:10200000C7C448E5588668A77840086118022823A5
:1020100038CCC9EDD98EE9AFF9488969990AA92B5D
:10202000B9F55AD44AB77A966A711A500A333A12F5
:102030002AFDDBDCCBBFFB9EEB799B588B3BBB1AAD
:10204000ABA66C877CE44CC55C222C033C600C4145
:102050001CAEED8FFDECCDCDDD2AAD0BBD688D49FD
:102060009D977EB66ED55EF44E133E322E511E7095
:102070000E9FFFBEEFDDDFFCCF1BBF3AAF599F784D
:102080008F8891A981CAB1EBA10CD12DC14EF16FFE
:10209000E18010A100C230E3200450254046706763
:1020A00060B9839893FBA3DAB33DC31CD37FE35E8F
:1020B000F3B1029012F322D23235421452776256B3
:1020C00072EAB5CBA5A89589856EF54FE52CD50D9F
:1020D000C5E234C324A01481046674476424540503
:1020E00044DBA7FAB79987B8975FE77EF71DC73C2F
:1020F000D7D326F2369106B0165766767615463453
:10210000564CD96DC90EF92FE9C899E9898AB9AB3E
:10211000A94458654806782768C018E1088238A3A2
:10212000287DCB5CDB3FEB1EFBF98BD89BBBAB9ACE
:10213000BB754A545A376A167AF10AD01AB32A92F2
:102140003A2EFD0FED6CDD4DCDAABD8BADE89DC9DE
:102150008D267C076C645C454CA23C832CE01CC142
:102160000C1FEF3EFF5DCF7CDF9BAFBABFD98FF86E
:102170009F176E367E554E745E932EB23ED10EF092
:102180001E7C3C3E5E2B3D3F2F5B5D3B2C2A225C40
:102190000045313A200045303A20005A3A20005993
:1021A0003A2000583A20004D53312C4D53322050E4
:1021B000696E730A00656E6473746F70732068696A
:1021C000743A205A00205A3A00656E6473746F7036
:1021D00073206869743A20590020593A00656E648A
:1021E00073746F7073206869743A20580020583AED
:1021F00000656E6473746F7073206869743A2000B0
:1022000024F4D43050C38E20C2A24017828B7011A8
:10221000127A910D816CD90AA861E108C758660746
:10222000615143061E4B5D05C145A7041A411104C7
:10223000093D9803713931034036DB026533910261
:10224000D4305402802E1D02632CEE01752AC50184
:10225000B028A001102781018F2564012B244B0198
:10226000E0223401AC211F018D200D01801FFC00F4
:10227000841EED00971DDF00B81CD200E61BC600CF
:10228000201BBC00641AB200B219A8000A19A000F1
:102290006A189900D117910040178B00B516840079
:1022A00031167E00B31579003A157300C7146F001C
:1022B00058146A00EE1366008813630025135E004D
:1022C000C7125B006C12570015125400C111510067
:1022D00070114F0021114B00D61049008D1047009E
:1022E0004610440002104200C00F4000800F3E0024
:1022F000420F3C00060F3B00CB0E3800930E370018
:102300005C0E3500270E3400F30D3200C10D310094
:10231000900D3000600D2E00320D2D00050D2C00AB
:10232000D90C2B00AE0C2900850C29005C0C270071
:10233000350C27000E0C2600E80B2400C40B2400EB
:10234000A00B23007D0B23005A0B2100390B210029
:10235000180B2000F80A1F00D90A1E00BB0A1E0035
:102360009D0A1D00800A1D00630A1C00470A1B000D
:102370002C0A1B00110A1A00F7091A00DD091900BE
:10238000C4091900AB091900920917007B0918004C
:10239000630917004C0916003609160020091600BB
:1023A0000A091500F5081500E0081400CC0814000F
:1023B000B8081400A4081400900813007D08120047
:1023C0006B08130058081200460812003408110068
:1023D000230811001208110001081100F007100075
:1023E000E0071000D0071000C0071000B0070F0072
:1023F000A107100091070E0083070F0074070F005C
:1024000065070E0057070E0049070E003B070D0039
:102410002E070E0020070D0013070D0006070D0004
:10242000F9060C00ED060D00E0060C00D4060C00C9
:10243000C8060C00BC060C00B0060C00A4060B007D
:1024400099060C008D060B0082060B0077060B0028
:102450006C060B0061060A0057060B004C060A00CA
:1024600042060A0038060A002E060A0024060A0060
:102470001A060A001006090007060A00FD050900F1
:10248000F4050900EB050900E2050900D90509007A
:10249000D0050900C7050900BE050900B5050800FB
:1024A000AD050800A50509009C0508009405080075
:1024B0008C050800840508007C05080074050800E8
:1024C0006C050700650508005D0507005605080056
:1024D0004E050700470507004005080038050700BE
:1024E000310507002A050700230507001C05060023
:1024F000160507000F05070008050600020507007E
:10250000FB040600F5040700EE040600E8040600DC
:10251000E2040700DB040600D5040600CF04060031
:10252000C9040600C3040600BD040600B704060083
:10253000B1040500AC040600A6040600A0040500D2
:102540009B04060095040500900406008A0405001B
:1025500085040500800406007A0405007504050062
:10256000700405006B0405006604050061040500A5
:102570005C04050057040500520405004D040500E5
:1025800048040500430405003E0404003A04050025
:1025900035040500300404002C0405002704040061
:1025A000230405001E0404001A0404001604050098
:1025B000110404000D0404000904050004040400CF
:1025C00000040400FC030400F8030400F403040006
:1025D000F0030400EC030400E8030400E403040037
:1025E000E0030400DC030400D8030400D403040067
:1025F000D0030400CC030400C8030300C503030098
:1026000024F404D9201BC40C5C0E9804C4095F0296
:1026100065077101F405F900FB04B3004804870065
:10262000C10369005803550003034500BE023A0088
:102630008402310053022A002902250004022000EE
:10264000E4011C00C8011900AF0117009801140033
:1026500084011300710110006101100051010E008E
:1026600043010D0036010B002B010B0020010B0074
:10267000150109000C01090003010800FB00080016
:10268000F3000800EB000700E4000600DE0006008F
:10269000D8000600D2000600CC000500C7000500E7
:1026A000C2000500BD000400B9000400B50004002C
:1026B000B1000400AD000400A9000400A50003005F
:1026C000A20003009F0004009B0003009800030089
:1026D0009500020093000300900003008D000200AB
:1026E0008B000300880002008600020084000300C3
:1026F000810002007F0002007D0002007B000200DA
:1027000079000200770001007600020074000200E8
:1027100072000100710002006F0002006D000100F4
:102720006C0002006A0001006900020067000100FD
:102730006600010065000100640002006200010003
:1027400061000100600001005F0002005D00010007
:102750005C0001005B0001005A000100590001000B
:10276000580001005700010056000100550001000B
:10277000540001005300000053000100520001000A
:1027800051000100500001004F0001004E00000008
:102790004E0001004D0001004C0001004B00000004
:1027A0004B0001004A000100490001004800000000
:1027B00048000100470001004600000046000100FB
:1027C00045000000450001004400010043000000F6
:1027D00043000100420000004200010041000000EF
:1027E00041000100400001003F0000003F000100E7
:1027F0003E0000003E0001003D0000003D000100E1
:102800003C0000003C0000003C0001003B000000D8
:102810003B0001003A0000003A00010039000000CE
:1028200039000100380000003800000038000100C5
:1028300037000000370001003600000036000000BD
:1028400036000100350000003500000035000100B1
:1028500034000000340000003400010033000000A8
:10286000330000003300010032000000320000009D
:102870003200010031000000310000003100010091
:102880003000000030000000300001002F00000088
:102890002F0000002F0000002F0001002E0000007C
:1028A0002E0000002E0001002D0000002D00000071
:1028B0002D0000002D0001002C0000002C00000065
:1028C0002C0000002C0001002B0000002B00000059
:1028D0002B0000002B0001002A0000002A0000004D
:1028E0002A0000002A000100290000002900000041
:1028F0002900000029000000290001002800000034
:102900002800000028000000280000002800010026
:10291000270000002700000027000000270000001B
:10292000270001002600000026000000260000000D
:102930002600000026000100250000002500000000
:1029400025000000250000002500000025000100F2
:1029500024000000240000002400000024000000E7
:1029600024000100230000002300000023000000D9
:1029700023000000230000002300000023000100CA
:1029800022000000220000002200000022000000BF
:1029900022000000220001002100000021000000B0
:1029A00021000000210000002100000021000000A3
:1029B0002100010020000000200000002000000095
:1029C0002000000020000000200000002000000087
:1029D000200001001F0000001F0000001F00000079
:1029E0001F0000001F0000001F0000001F0001006A
:1029F0001E0000001E0000001E0000001E0000005F
:102A00004572723A204D415854454D50204245443C
:102A10000054656D706572617475726520686561DA
:102A200074656420626564207377697463686564A3
:102A3000206F66662E204D415854454D50207472CB
:102A400069676765726564202121004572723A20CA
:102A50004D494E54454D50003A2045787472756486
:102A60006572207377697463686564206F66662E8B
:102A7000204D494E54454D50207472696767657208
:102A800065642021004572723A204D415854454DED
:102A900050003A20457874727564657220737769C6
:102AA0007463686564206F66662E204D41585445F6
:102AB0004D50207472696767657265642021005407
:102AC0004845524D414C2052554E415741590054B2
:102AD0006865726D616C2052756E617761792C202A
:102AE00073797374656D2073746F707065642120E1
:102AF0004865617465725F49443A200048656174B5
:102B0000696E67206661696C656400202D20496EDE
:102B100076616C6964206578747275646572206E84
:102B2000756D626572202100504944204175746FB3
:102B300074756E652066696E6973686564212050DE
:102B4000757420746865206C617374204B702C2040
:102B50004B6920616E64204B6420636F6E737461F7
:102B60006E74732066726F6D2061626F7665206986
:102B70006E746F20436F6E66696775726174696FFA
:102B80006E2E6800504944204175746F74756E65EF
:102B9000206661696C6564212074696D656F757468
:102BA0000020403A006F6B20543A006F6B20423A8D
:102BB00000504944204175746F74756E65206661DC
:102BC000696C6564212054656D70657261747572FD
:102BD0006520746F6F206869676800204B643A2035
:102BE00000204B693A2000204B703A200020436CB3
:102BF00061737369632050494420002054753A2062
:102C000000204B753A2000206D61783A2000206D3D
:102C1000696E3A200020643A200020626961733AAC
:102C200020001000AD0330016A0150022B01700337
:102C30000A019004F500B005E500D006D800F007C1
:102C4000CE001009C500300ABE00500BB700700C52
:102C5000B100900DAB00B00EA600D00FA200F01096
:102C60009D001012990030139500501492007015B9
:102C70008E0090168B00B0178700D0188400F019D2
:102C80008100101B7E00301C7B00501D7900701EDF
:102C90007600901F7300B0207000D0216E00F022EB
:102CA0006B001024690030256600502663007027F1
:102CB000610090285E00B0295C00D02A5900F02BFA
:102CC0005600102D5400302E5100502F4E00703001
:102CD0004B0090314800B0324500D0334200F03410
:102CE0003E0010363B003037370050383300703923
:102CF0002E00903A2900B03B2300D03C1B00F03D51
:102D00001100103F0100F03F00001000C902100147
:102D10002C014001220170011801B0010E01F001E7
:102D200004015002FA00B002F0003003E600D003C4
:102D3000DC009004D2007005C800A006BE000008A8
:102D4000B400B009AA00D00BA000600E960060117C
:102D50008C000015820020197800C01D6E00A02292
:102D60006400B0275A00902C500000314600E03437
:102D70003C0010383200903A2800603C1E00A03D14
:102D80001400803E0A00203F00004C756C7A426FB0
:102D9000742054415A20362072656164792E0043B4
:102DA00061726420696E73657274656400B020009E
:102DB000B0200059002D2D3A2D2D20202D2D2E2D07
:102DC000250020202031303025002020004D3630D5
:102DD00030004368616E67652066696C616D656E81
:102DE00074004170707278204C6179657200417096
:102DF000707278204C617965720046616E20737044
:102E00006565640046616E20737065656400466C9C
:102E10006F7700466C6F770042656400426564001E
:102E20004E6F7A7A6C65004E6F7A7A6C65005370DB
:102E3000656564005370656564004D61696E005896
:102E40000059005A004578747275646572004578BF
:102E5000747275646572004D6F7665205A004D6F0F
:102E600076652059004D6F76652058004D6F766568
:102E70002061786973004D6F766520302E316D6D5D
:102E8000004D6F766520316D6D004D6F7665203198
:102E9000306D6D004D6F76656D656E74004D6F76AB
:102EA000652061786973004D38340044697361624C
:102EB0006C652073746570706572730047323800FA
:102EC0004175746F20686F6D65004D61696E0043D8
:102ED0006F6F6C646F776E0046616E20737065650E
:102EE000640046616E20737065656400426564002D
:102EF000426564004E6F7A7A6C65004E6F7A7A6C28
:102F000065004D61696E005A204F666673657400F6
:102F10004573746570732F6D6D00457374657073C0
:102F20002F6D6D005A73746570732F6D6D005A7339
:102F3000746570732F6D6D005973746570732F6DA8
:102F40006D005973746570732F6D6D0058737465DF
:102F500070732F6D6D005873746570732F6D6D00F5
:102F6000412D7265747261637400412D72657472D3
:102F700061637400416D6178206500416D61782066
:102F80006500416D6178207A00416D6178207A009A
:102F9000416D6178207900416D6178207900416D43
:102FA0006178207800416D61782078005654726114
:102FB00076206D696E005654726176206D696E00E0
:102FC000566D696E00566D696E00566D61782065AC
:102FD00000566D6178206500566D6178207A005644
:102FE0006D6178207A00566D6178207900566D61A8
:102FF00078207900566D6178207800566D617820D0
:10300000780056652D6A65726B0056652D6A65728B
:103010006B00567A2D6A65726B00567A2D6A65725E
:103020006B005678792D6A65726B005678792D6A37
:1030300065726B00416363656C00416363656C009E
:103040005A204F666673657400436F6E66696775D4
:10305000726174696F6E00526573746F726520746B
:103060006F20466163746F7279004C6F61642073E6
:10307000657474696E677300536176652073657457
:1030800074696E677300416476616E636564207372
:10309000657474696E6773004D61696E0050726982
:1030A0006E742061626F72746564004D3234004D3D
:1030B000323320257300F92E2E004D61696E004ECB
:1030C0006F2053442063617264005072696E7420F3
:1030D00066726F6D2053440053746F702070726974
:1030E0006E7400526573756D65207072696E740040
:1030F0005061757365207072696E7400436F6E66FF
:10310000696775726174696F6E0054656D70657280
:103110006174757265004D6F76656D656E740054EF
:10312000756E6500496E666F2073637265656E002B
:103130000000000000000000000000007FFFE00031
:1031400000000000000000000000007000E000002F
:103150000000000000000000000061F860000000B6
:1031600000000000000000000041F8200000000006
:10317000000000000000000040F0200000000000FF
:10318000000000000000004060200000000000007F
:103190000000000000005801A07F80000000000037
:1031A00000004104005C63A0FFC0000000000000BC
:1031B000002082005EF7A0FFC000000000000000B9
:1031C0002082005EF7A0FFC0000000000000004168
:1031D00004005C63A07F8000000000000000820803
:1031E000005801A07F8000000000000001041000D2
:1031F000406020FFC00000000000000104100040FB
:10320000F020FFC00000000000000082080041F82C
:1032100020FFC00000000000000041040061F860D1
:103220003F00000000000000000000007000E01EF1
:103230000000000000000001FFFF807FFFE00C00A5
:1032400000000000000001FFFF80000000000000FF
:103250000000000000000000007FFFE00000000010
:1032600000000000000000007000E000000000000E
:1032700000000000000000630C600000000000007F
:10328000000000000000470E2000000000000000C9
:1032900000000000004F0F200000000000000000B0
:1032A000000000005F0FA000000000000000000010
:1032B0000000005E07A07F800000000000000041C9
:1032C0000400406020FFC0000000000000002082D9
:1032D0000040F020FFC0000000000000002082003D
:1032E00040F020FFC000000000000000410400404A
:1032F00060207F80000000000000008208005E0760
:10330000A07F80000000000000010410005F0FA0FB
:10331000FFC0000000000000010410004F0F20FF5C
:10332000C000000000000000820800470E20FFC01F
:1033300000000000000000410400630C603F00003A
:103340000000000000000000007000E01E0000000F
:103350000000000001FFFF807FFFE00C0000000084
:1033600000000001FFFF800000007F80FFC0FFC061
:10337000FFC07F807F80FFC0FFC0FFC03F001E00F6
:103380000C00FFFFFF060006000600060006000610
:10339000000600060006003FC01F800F0006000662
:1033A00000060006000600060006003FC01F800F52
:1033B00000060006000F001F803FC0060006000642
:1033C0000006000600060006000600060006000FC4
:1033D000001F803FC006000600060006000600062B
:1033E00000001FE00030300040080080040180062B
:1033F00001000207C0020380020100020000020077
:103400000002000006000004000008003030001F29
:10341000E007F8000C0C00100200200100600180A1
:103420004000804003E04001C04000804000004078
:1034300000006000002000001000000C0C0007F8E5
:10344000000000000000000000000000000000007C
:10345000000000000000000000000000000000006C
:10346000000000000C000000000000000C00000044
:103470000000000012000000000000002300000017
:103480000000000021000000000000004C8000004F
:10349000000000005E80000000000000924000007C
:1034A00000000000A14000000000000121200000F9
:1034B000000000027F9000000000000200100000E9
:1034C00000000007FFF800000000000400080000F2
:1034D00000000008000400000000000800060000D2
:1034E0000000001000020000000000301E0100007B
:1034F000000000207F81000000000041FFE080000C
:1035000000000043FCF08000000000873B78400092
:103510000000018EDBFC60000000010FEBCC2000FE
:103520000000021FEDB610000000021FDEB6100002
:1035300000000439CD7F080000000436E0FF0800D9
:103540000000087EC0BB84000000187F005D86007C
:103550000000107FC0ED82000000203CC07301001D
:103560000000203B337F01000000701BE77E0380DA
:103570000000C81DEEDE04C00000880FDEDC044041
:103580000001240FDF3C092000012607DBF8192089
:1035900000027203E7F0139000025101FFE0229055
:1035A000000489007F802448000904801E0048240C
:1035B000000BFE400000DFF400100040000080021D
:1035C000001FFFFFFFFFFFFE0000000000000000E3
:1035D00000000000000000000000000000000000EB
:1035E000001022103C3C0E1F001022100422110477
:1035F000001022100822110400102210083C1104AF
:103600000010221010221104001022102022110498
:10361000001E1C1E3C3C0E040000000000000000C8
:10362000000000000000000000000000000000009A
:10363000000000000000000000000000000000008A
:10364000000000000000000000000000000000007A
:10365000000000000000000000000000000000006A
:10366000000000000000000000000000000000005A
:10367000000000000000000000000000000000004A
:10368000060900FE070199032B20FFFE08FE07FE36
:10369000000000060000010707060200808080800D
:1036A000800080030303060104A0A0A0050707060D
:1036B00000005050F850F850500507070600002051
:1036C00070A07028702005070706000048A8502049
:1036D00050A89005070706000040A0A040A89068E9
:1036E000010303060204808080030707060100200F
:1036F0004080808040200307070601008040202092
:103700002040800505050600018850F85088050511
:10371000050600012020F820200303030601FF60B6
:103720004080050101060003F80303030601FF4082
:10373000E0400507070600000808102040808005CB
:1037400007070600002050888888502005070706D4
:1037500000002060A0202020F80507070600007068
:103760008808304080F8050707060000F808103088
:1037700008887005070706000010305090F81010F8
:10378000050707060000F880B0C80888700507071D
:10379000060000304080B0C88870050707060000AA
:1037A000F8081010204040050707060000708888C0
:1037B00070888870050707060000708898680810F0
:1037C000600307070601FF40E0400040E0400307B8
:1037D000070601FF40E04000604080040707060143
:1037E0000010204080402010050303060002F8006E
:1037F000F8040707060100804020102040800507DC
:10380000070600007088102020002005070706002A
:1038100000708898A8B08070050707060000205047
:103820008888F88888050707060000F0484870482F
:1038300048F00507070600007088808080887005C2
:103840000707060000F04848484848F00507070603
:103850000000F88080F08080F8050707060000F877
:103860008080F080808005070706000070888080D7
:10387000988870050707060000888888F888888877
:10388000030707060100E04040404040E00507070D
:1038900006000038101010109060050707060000A1
:1038A0008890A0C0A090880507070600008080804F
:1038B000808080F80507070600008888D8A88888D7
:1038C000880507070600008888C8A8988888050723
:1038D000070600007088888888887005070706003A
:1038E00000F08888F08080800508080600FF708856
:1038F000888888A87008050707060000F08888F007
:10390000A0908805070706000070888070088870FE
:10391000050707060000F8202020202020050707C3
:1039200006000088888888888870050707060000D8
:10393000888888505050200507070600008888882E
:10394000A8A8D88805070706000088885020508856
:1039500088050707060000888850202020200507DA
:1039600007060000F80810204080F803070706014A
:1039700000E08080808080E00507070600008080EE
:103980004020100808030707060100E0202020203F
:1039900020E005030306000420508805010106000D
:1039A000FFF8020202060206804005050506000037
:1039B00070087888780507070600008080B0C888FE
:1039C000C8B00505050600007088808870050707E7
:1039D0000600000808689888986805050506000034
:1039E0007088F88070050707060000304840F040F6
:1039F00040400507070600FE78888878088870052B
:103A000007070600008080B0C8888888030707067B
:103A100001004000C0404040E00409090601FE10DA
:103A2000003010101090906005070706000080809D
:103A30008890E09088030707060100C0404040409E
:103A400040E0050505060000D0A8A8A888050505E2
:103A5000060000B0C8888888050505060000708843
:103A60008888700507070600FEB0C888C8B0808047
:103A70000507070600FE6898889868080805050588
:103A8000060000B0C8808080050505060000708033
:103A90007008F00507070600004040F0404048303D
:103AA0000505050600008888889868050505060054
:103AB0000088885050200505050600008888A8A8C1
:103AC00050050505060000885020508805070706A8
:103AD00000FE88889868088870050505060000F8CB
:103AE000102040F8040707060100304020C02040A5
:103AF00030010707060200808080808080800407F4
:103B000007060100C02040304020C0050303060026
:103B10000448A8900000000100000000000100001F
:103B20000000000100000000000100000000000192
:103B30000000000000010000000000010000000083
:103B40000001000000000001000000000001000072
:103B50000000000100000000000100000000000162
:103B60000000000000010000000000010000000053
:103B70000001000000000001000000000001000042
:103B80000000000100000000000100000000000132
:103B90000000000000010000000000010000000023
:103BA0000001000000000001000000000001000012
:103BB0000000000100000000000100000000000102
:103BC00000000000000100000000000100000000F3
:103BD00000010000000000010000000000060000DD
:103BE00001070706020080008080808080050707AB
:103BF0000600FF2078A0A0A0782005070706000097
:103C0000304840E04048B005050506000088705087
:103C100070880508080600FF88885020F8202020BA
:103C20000107070602008080800080808005080868
:103C30000600FF7080E0904838087003010106011B
:103C400007A00507070600007088A8C8A8887004A8
:103C500006060601017090B05000F006050506004A
:103C6000002448904824040202060102F0100401D6
:103C700001060103F00507070600007088E8C8C8C0
:103C80008870050101060007F803030306010440DC
:103C9000A0400506060600002020F82020F80405B4
:103CA0000506010360902040F0040505060103E0CD
:103CB000106010E0020202060206408005060606B9
:103CC00000FF888888C8B08005070706000078E8EC
:103CD000E868282828010101060203800202020682
:103CE00002FE408003050506010340C04040E00499
:103CF00006060601016090906000F00605050600CA
:103D00000090482448900609090600FF40C0404042
:103D1000E40C143C040609090600FF40C04040E8DA
:103D20001404081C0509090600FFC0204020C8181B
:103D3000287808050707060000200020204088702A
:103D40000508080600004020708888F88888050863
:103D5000080600001020708888F888880508080682
:103D600000002050708888F8888805080806000040
:103D700048B0708888F88888050808060000500058
:103D8000708888F888880508080600002050708828
:103D900088F888880607070600003C50909CF09041
:103DA0009C0509090600FE7088808080887020408C
:103DB00005080806000040F88080F08080F80508BB
:103DC0000806000010F88080F08080F805080806DA
:103DD000000020F88080F08080F8050808060000C8
:103DE00050F88080F08080F80308080601008040C9
:103DF000E040404040E00308080601002040E04069
:103E0000404040E003080806010040A0E040404078
:103E100040E0030808060100A000E040404040E008
:103E2000050707060000F04848E84848F00508087C
:103E3000060000285088C8A8988888050808060049
:103E400000402070888888887005080806000010E7
:103E50002070888888887005080806000020507047
:103E600088888888700508080600002850708888AF
:103E700088887005080806000050007088888888C7
:103E800070050505060000885020508805070706C4
:103E90000000709898A8C8C870050808060000407F
:103EA0002088888888887005080806000010208807
:103EB00088888888700508080600002050008888D7
:103EC000888870050808060000500088888888885F
:103ED0007005080806000010208888502020200562
:103EE000070706000080F088F0808080050707063D
:103EF0000000708890A09088B00508080600004077
:103F00002000700878887805080806000010200056
:103F100070087888780508080600002050007008AE
:103F2000788878050808060000285000700878880E
:103F300078050707060000500070087888780508A3
:103F400008060000205020700878887806050506CD
:103F5000000078147C907C0507070600FE708880BE
:103F6000887020400508080600004020007088F88E
:103F700080700508080600001020007088F8807026
:103F80000508080600002050007088F880700507BA
:103F90000706000050007088F880700308080601CA
:103FA00000804000C0404040E00308080601004097
:103FB0008000C0404040E003080806010040A00027
:103FC000C0404040E0060A0A0600FEA4A800FC84A7
:103FD00080808084FC060A0A0600FE549400FC845B
:103FE00004040484FC050808060000285000B0C83A
:103FF00088888805080806000040200070888888A6
:1040000070040A0A0602FE304080909090909090D2
:1040100090040A0A0600FEC02010909090909090A4
:1040200090060707060001448C8C8480403C0607FC
:104030000706000188C4C4840408F00505050600CD
:10404000012000F8002005080806000040F0C8889C
:1040500088987810050808060000E0F888888888A5
:1040600088F80505050600012030F830200508080D
:104070000600002070F820202020E0050909060035
:10408000FF2070A8A8B8888850200509090600FFFD
:10409000E080C0B0A8A83028280509090600FFF86C
:1040A000A88888888888A8F8050A0A0600FE205093
:1040B00050505088A8A8887000060900FE060189A3
:1040C00002FE20FFFE07FE06FE00000006000701BC
:1040D000060606020080808080008003030306013C
:1040E00003A0A0A00507070600FF5050F850F850A5
:1040F000500509090600FE2070A8A07028A87020AD
:104100000608080600FF40A8481020485408050784
:10411000070600FF60909060989068010303060214
:10412000038080800207070602FF40808080808035
:10413000400207070602FF804040404040800505DE
:10414000050600008850F850880505050600002087
:1041500020F820200204040602FEC0404080050131
:1041600001060002F8020202060200C0C0040606B0
:104170000601001010204080800406060601006041
:10418000909090906003060606010040C0404040B9
:10419000E00406060601006090102040F0040606C8
:1041A000060100F020601010E00506060600001071
:1041B000305090F810040606060100F080E0101060
:1041C000E00406060601006080E0909060040606A8
:1041D000060100F0101020404004060606010060B1
:1041E0009060909060040606060100609090701048
:1041F00060020505060200C0C000C0C00207070635
:1042000002FEC0C000C04040800505050600001841
:1042100060806018050303060001F800F805050535
:10422000060000C0300830C0040707060100609097
:1042300010604000400506060600007090A8B0809F
:1042400070050606060000205088F88888050606D6
:10425000060000F088F08888F00406060601006079
:104260009080809060040606060100E09090909097
:10427000E0040606060100F080E08080F0040606F7
:10428000060100F080E080808004060606010060E0
:104290009080B090600406060601009090F0909027
:1042A00090030606060100E040404040E005060697
:1042B00006000038101010906004060606010090F9
:1042C000A0C0A09090040606060100808080808037
:1042D000F005060606000088D8A8A8888804060607
:1042E00006010090D0B09090900506060600007080
:1042F0008888888870040606060100E09090E080B7
:10430000800407070601FF609090D0B0601004069B
:1043100006060100E09090E0909004060606010079
:10432000609040209060050606060000F8202020DE
:1043300020200406060601009090909090600406EC
:1043400006060100909090F06060050606060000E9
:104350008888A8A8D888050606060000885020206E
:104360005088050606060000888850202020040694
:1043700006060100F010204080F00306060601004A
:10438000E080808080E004060606010080804020F6
:104390001010030606060100E020202020E005039F
:1043A000030600032050880501010600FEF8020202
:1043B000020602048040040404060100709090701C
:1043C0000406060601008080E09090E004040406E4
:1043D00001007080807004060606010010107090C5
:1043E000907004040406010060B0C0700406060664
:1043F0000100205040E040400406060601FE6090A7
:10440000907010600406060601008080E090909095
:104410000306060601004000C04040E0030808060D
:1044200001FE200060202020A040040606060100B6
:104430008080A0C0A090030606060100C040404056
:1044400040E0050404060000D0A8A888040404067F
:104450000100E090909004040406010060909060D8
:104460000406060601FEE09090E080800406060641
:1044700001FE709090701010040404060100A0D09A
:10448000808004040406010070C030E004060606C3
:1044900001004040E04050200404040601009090D8
:1044A0009070040404060100909060600504040606
:1044B000000088A8A85004040406010090606090E1
:1044C0000406060601FE90909070906004040406B5
:1044D0000100F02040F00307070601002040408063
:1044E0004040200107070602FF8080808080808096
:1044F000030707060100804040204040800402027C
:1045000006010350A0FFFFFFFFFFFFFFFFFFFFFFBC
:10451000FFFFFFFFFFFFFFFFFFFFFFFFFFFFFFFFAB
:10452000FFFFFFFFFFFF0000000600070106060671
:1045300002008000808080800406060601FF207053
:10454000A0A070200507070600FF304840F040405B
:10455000F8050505060000A8508850A805060606BF
:1045600000008850F820F8200107070602FF80802D
:1045700080008080800407070601FF7080609060E3
:1045800010E0030101060105A006070706000078F8
:104590008494A494847803050506010160A060005A
:1045A000E00505050600002850A050280403030676
:1045B0000100F01010040101060102F006070706D1
:1045C00000007884B4A4A48478040101060105F0F5
:1045D0000403030601026090600507070600FF2040
:1045E00020F8202000F803050506010140A0204026
:1045F000E0030505060101C0204020C002020206BA
:10460000020440800405050601FF9090B0D08005AB
:10461000060606000078E8E868282801010106027D
:1046200002800202020602FE408003050506010127
:1046300040C04040E003050506010140A04000E005
:10464000050505060000A0502850A0050808060032
:10465000FF40C04050703078100508080600FF4049
:10466000C04050680810380508080600FFC0204008
:1046700030F0307810040707060100200020608029
:1046800090600507070600004020205070888805CC
:1046900007070600001020205070888805070706CD
:1046A0000000205020507088880507070600002869
:1046B00050205070888805070706000050002050E1
:1046C00070888805070706000020502050708888F1
:1046D00005060606000078A0F0A0A0B804080806A9
:1046E00001FE609080809060204004070706010072
:1046F0004020F080E080F00407070601002040F031
:1047000080E080F00407070601002050F080E08080
:10471000F00407070601005000F080E080F0030776
:10472000070601008040E0404040E0030707060123
:10473000002040E0404040E003070706010040A0A1
:10474000E0404040E0030707060100A000E04040D1
:1047500040E00506060600007048E8484870040777
:104760000706010050A090D0B09090040707060102
:1047700000402060909090600407070601002040F0
:1047800060909090600407070601002050609090B0
:10479000906004070706010050A0609090906004AC
:1047A000070706010050006090909060050505061F
:1047B000000088502050880408080601FF1070B0DF
:1047C000B0D0D0E080040707060100402090909010
:1047D00090600407070601002040909090906004CC
:1047E000070706010020509090909060040707068C
:1047F000010050009090909060050707060000109F
:1048000020885020202004060606010080E09090B9
:10481000E0800406060601006090A0A090A00407B6
:104820000706010040200070909070040707060101
:10483000002040007090907004070706010020508F
:10484000007090907004070706010050A00070905F
:1048500090700406060601005000709090700407E6
:104860000706010020502070909070050404060097
:104870000070A8B0780406060601FE7080807020E3
:104880004004070706010040200060B0C070040724
:104890000706010020400060B0C070040707060151
:1048A0000020500060B0C0700406060601005000F1
:1048B00060B0C070030707060100804000C04040A0
:1048C000E0030707060100204000C04040E0030766
:1048D0000706010040A000C04040E00306060601B4
:1048E00000A000C04040E00407070601003060104F
:1048F0007090906004070706010050A000E09090BF
:1049000090040707060100402000609090600407B3
:104910000706010020400060909060040707060130
:10492000002050006090906004070706010050A02E
:1049300000609090600406060601005000609090B0
:10494000600505050600002000F8002004040406A8
:10495000010070B0D0E0040707060100402000907D
:10496000909070040707060100204000909090701E
:10497000040707060100205000909090700406067E
:104980000601005000909090700409090601FE2075
:1049900040009090907090600408080601FE8080AE
:1049A000E09090E080800408080601FE500090909E
:1049B000907090600A00207A3A200020793A200016
:1049C00020783A200000000A0B02090C0D0E08079F
:1049D00003040100000000000000000000000000CF
:1049E00000000000000000000000000000000000C7
:1049F0000012111000000000000000000000000084
:104A00000000000000000000000000010210202053
:104A10000808102040102040800201020108040212
:104A20000101020408102040808040201008040288
:104A300001800402018040201008040201080402E1
:104A400001010204081020408001020408102040E7
:104A50008005050505070508080808020202020A84
:104A60000A08080404040401010101010101010311
:104A700003030303030303040707070C0C0C0C0CCC
:104A80000C0C0C0202020206060606060606060BBF
:104A90000B0B0B0B0B0B0B00002000230026002937
:104AA000002C002F00320000010000030106010964
:104AB0000100002200250028002B002E00310034C8
:104AC0000002010000050108010B01000021002483
:104AD0000027002A002D00300033000101000004EF
:104AE0000107010A01024E414E494E495459494EAF
:104AF00046CDCCCC3D0AD7233C17B7D13877CC2B49
:104B0000329595E6241FB14F0A000020410000C8ED
:104B10004200401C4620BCBE4CCA1B0E5AAEC59D6E
:104B20007400117DDD00157D11241FBECFEFD1E291
:104B3000DEBFCDBF00E00CBF15E0A0E0B2E0E0E5D5
:104B4000FFE302E00BBF02C007900D92A03AB1074D
:104B5000D9F725E1A0EAB5E001C01D92A73EB20752
:104B6000E1F71BE4C6E2DBE400E006C0229701099E
:104B7000FE010BBF0F941318C232D10780E0080763
:104B8000A9F70F94180F0D94971F0C940000CF9362
:104B9000CFB7F8948091A005811127C0E6E8FAE428
:104BA0008491E0E4FAE49491E82FF0E0EE0FFF1F27
:104BB000E553F54BA591B4918C91892321F461E0E3
:104BC00085E30F94BA0E61E085E30F94810E8CB5F6
:104BD00080618CBD8CB580648CBD61E084E30F94F2
:104BE000810E61E083E30F94810E8091A0058F5FB9
:104BF0008093A005CFBFCF910895AF92BF92CF927F
:104C0000DF92EF92FF920F931F93CF93DF931F9248
:104C1000CDB7DEB77C01362FC42ED22E5801DD2051
:104C200079F0F501049120E04C2D632FC701398301
:104C30009CD3FFEFAF1ABF0ADA943981385FEFCF08
:104C40000F90DF91CF911F910F91FF90EF90DF9028
:104C5000CF90BF90AF9008958F929F92AF92BF92E6
:104C6000CF92DF92EF92FF920F931F93CF93DF9338
:104C7000EC01962EB42EA22ED02E220F220F220F40
:104C80001FD0882381F08B2C8D0CCA2CD12CB8140A
:104C900051F087012A2D4B2D692DCE01AEDFEC0C92
:104CA000FD1CB394F4CFDF91CF911F910F91FF9032
:104CB000EF90DF90CF90BF90AF909F908F9008952E
:104CC0000F93FC010150040F82A994A9941718F0C6
:104CD000081728F402C0081750F0041740F42150B8
:104CE000260F81A993A9961720F4281720F480E0B5
:104CF00007C0281720F481E0261710F0F8CF81E0D4
:104D00000F91089581E008952EE93FE0009729F082
:104D1000F9013197F1F70197F9CF089588E290E012
:104D20000197F1F70895FC01E60FF11D849190E0E1
:104D3000982F88273196E4918E0F911D0895FC01DC
:104D400084910895FCDF811102C086E0089583E01C
:104D5000089580E0089566E0E6CF68E0E4CF0A9623
:104D6000FC01849108950B96FC0184910895BF92F3
:104D7000CF92DF92EF92FF920F931F93CF93DF9327
:104D8000EC01E62E0C811D81C801D9DFF82E8C8143
:104D90009D81D8DFB82E21E0F21619F0CC24CA94F8
:104DA00002C05FE0C52E8C819D81D9DFF82E8C81F9
:104DB0009D81D9DFD82E8C819D81CFDFE0E6EE1575
:104DC00038F4009729F0080F191F41E6F42E0FC0A0
:104DD0008C819D81C0DFF0E4FE1538F4009729F046
:104DE000080F191F31E4F32E02C00F5E1F4FDE14AF
:104DF00040F4188A1B8A1C8A198A1A8A80E090E07B
:104E00004CC0DF14B0F32B2D30E0F80184918F3FBC
:104E100019F40F5F1F4F3CC0FE1032C08C819D8182
:104E20008EDF98012F5F3F4FF801811111C08491EF
:104E30008B8BF90124912C8B3296E491E88BF8014D
:104E40003496E491E98BF8013596E491EA8B16C02B
:104E50009491892F8F7082508A8B92959F70998B35
:104E6000F9012491822F8F708C8B22952F702B8BC0
:104E7000F8013296E491E295EF70E88BC8010DC01D
:104E8000F8013296E491EC210E0F111D020F131F51
:104E9000FD1409F4AECFF394B8CFDF91CF911F91F9
:104EA0000F91FF90EF90DF90CF90BF9008954F92B9
:104EB0005F927F928F929F92AF92BF92CF92DF923A
:104EC000EF92FF920F931F93CF93DF931F92CDB773
:104ED000DEB72C01162F742E622F49DF6C0100976C
:104EE00009F43BC0F201848195812CDFF82EF20198
:104EF000838804899188910E8289781A172D101B56
:104F0000282D412F692DC201DBDE882319F1CF0C3A
:104F1000D11CF7E08F0E869486948694A82CB12C31
:104F20001715C1F0392D76018E2D8C19881570F466
:104F3000F701049120E0412F632FC201398315D27C
:104F4000FFEFEF1AFF0A3981385FEECFCA0CDB1C86
:104F50001F5FE6CFF201808901C080E00F90DF91F2
:104F6000CF911F910F91FF90EF90DF90CF90BF9066
:104F7000AF909F908F907F905F904F9008950F9388
:104F80001F93CF93DF9300D0CDB7DEB78C01DC0148
:104F90005596ED91FC9156972B834A836983199519
:104FA0004A81480F2B816981C8010F900F900F90A3
:104FB000DF91CF911F910F917ACFAF92BF92DF9285
:104FC000EF92FF920F931F93CF93DF931F921F9245
:104FD000CDB7DEB78C01E62EF42EDC015596ED91AF
:104FE000FC91569729833A831995F80E2981A22EB0
:104FF0003A81B32ED12CF50121915F01222339F0A2
:105000004F2D6E2DC80153DFE80ED80EF4CF8D2D35
:105010000F900F90DF91CF911F910F91FF90EF9024
:10502000DF90BF90AF900895DC0114968D919C9114
:105030001597009709F43FC057962C915797FC019C
:10504000211108C03596E4915896EC935897FC01CD
:105050003C9611C0213041F43F96E4915896EC9370
:105060005897FC01709607C03D96E4915896EC93D2
:105070005897FC013E96849159968C93599758966F
:105080008C915897992787FD909559962C9159970F
:10509000821B910927FD93955A962C915A9720349B
:1050A00041F0829FC0011124E6E096958795EA952C
:1050B000E1F75B968C93089529EA36E2FC01368B82
:1050C000258B0895CF93DF93EC018C819D8186170A
:1050D000970741F07D836C83CE01A6DF89EA96E2D3
:1050E0009E8B8D8BDF91CF9108951F93CF93DF938C
:1050F000EC011D821C821F821E82198681E0888736
:1051000082E28A871F861E8680E090E02FEFFE01F4
:10511000E80FF91F21A301968E309105C1F711E028
:1051200018A3CE01C9DF1F8B188E198E80E48A8FD9
:105130001B8E87ED9BE298AB8FA7DF91CF911F91DC
:105140000895DB01ED91FC911994EF92FF921F936A
:10515000CF93DF931F921F92CDB7DEB77C01DC01A6
:105160009F96ED91FC91D09782E069837A8319959F
:1051700020E030E04AE069817A81C701E2DF182F40
:10518000D7019F96ED91FC91D09783E01995D701B7
:105190009F96ED91FC91D09780E01995812F0F900B
:1051A0000F90DF91CF911F91FF90EF9008950F9393
:1051B0001F93CF93DF93EC018B01EFA5F8A982E059
:1051C0001995EFA5F8A981E0199520E030E044E1B8
:1051D000B801CE01B6DF9E012F5C3F4F47E1B80119
:1051E000CE01AFDFEFA5F8A980E0DF91CF911F914D
:1051F0000F911994FF920F931F93CF93DF93EC01BC
:105200008B01EFA5F8A982E01995EFA5F8A981E037
:10521000199520E030E045E1B801CE0192DFF82E8B
:10522000882339F09E012F5C3F4F47E1B801CE0142
:1052300088DFEFA5F8A980E019958F2DDF91CF9138
:105240001F910F91FF900895CF93DF931F92CDB7D9
:10525000DEB749839E012F5F3F4F4FE072DF0F9013
:10526000DF91CF910895FC01448F258F9C01245E2E
:105270003F4F42E366CFCF93DF931F92CDB7DEB7A8
:105280009E012F5F3F4F46E45CDF89810F90DF91E5
:10529000CF910895CF93DF931F92CDB7DEB79E01D4
:1052A0002F5F3F4F47E44DDF89810F90DF91CF9112
:1052B000089520E030E048E444CFCF93DF93EC0141
:1052C0006A817B81D8DF88836A817B81CE01E2DFBE
:1052D00089836A817B81CE01ECDF8B879E012F5C05
:1052E0003F4F6A817B8147E1CE01DF91CF9129CF8A
:1052F000CF93DF93EC016A817B8127DF882321F044
:10530000CE01DBDF81E001C080E0DF91CF91089525
:105310000F931F93CF93DF93EC018B01E6DE1B838A
:105320000A83CE01DF91CF911F910F91E1CFFC0154
:10533000628173813CCFCF93DF93EC01EE85FF85D3
:10534000309709F019956A817B81CE01DF91CF9169
:1053500051CF462FFC016281738176CF362F242FE7
:10536000FC0162817381432F7ECF0F93FC01828108
:105370009381648F458F278F068F9F01245E3F4F57
:105380004BE3BC01CF010F91DCCEFC0160A308957B
:10539000FC01128280818150838314820895FC0174
:1053A00020818281820F82839181891760F48481B8
:1053B0008F5F84838381820F891710F08FEF890FAD
:1053C000838381E0089580E00895FC0191E083816A
:1053D000861708F490E021E0461708F020E0322F0D
:1053E000392B81E05281451708F480E08323922312
:1053F000892B0895DC01FB01108212968C91129783
:10540000818315968C9115978150828313968C9188
:1054100083830895FB0141812381213029F02330CA
:1054200031F468EF640F04C0642F485F01C0642F3B
:10543000CCCFDC0115962C9115971696ED91FC9129
:105440001797CF01B4E02B9F800D911D112411926D
:10545000E817F907E1F70895DC011696ED91FC9144
:10546000179715968C91159790E033E09695879550
:105470003A95E1F712963C91431B489FD001499F12
:10548000B00D1124EA0FFB1F362F377080E890E033
:1054900002C0959587953A95E2F76695669566956B
:1054A000E60FF11D3081222311F0832B02C080957D
:1054B000832380830895FB014181DC0112962C91A6
:1054C0001297421760F013962C911397241738F017
:1054D000608115962C91621710F42481BDCF089538
:1054E000CF92DF92FF920F931F93CF93DF931F9280
:1054F0001F92CDB7DEB78C016B01FB01F280838177
:10550000813039F070F0823039F0833041F020E0A2
:1055100001C021E030E007C020E03FEF04C02FEFE2
:10552000F9CF20E031E0F7FE07C0B601C8012983BA
:105530003A83C1DF3A812981F6018081830F80831C
:105540008181820F8183FF0C71F70F900F90DF91A3
:10555000CF911F910F91FF90DF90CF9008950F93FF
:105560001F93CF93DF938901FB01C281D381423323
:10557000D9F058F44531E1F0473109F1443141F5B2
:10558000CE0157DFCE0104DF23C04634E1F04734BB
:10559000E1F04B33E9F4B901CE013CDF8823C1F0DF
:1055A000B801CE019DDF14C0B901CE0184DF10C067
:1055B000CE01F5DE882371F0CE013BDF09C0B901D1
:1055C000CE0118DF05C08D8101C08981F80180837B
:1055D00081E001C080E0DF91CF911F910F9108958C
:1055E000AF92BF92DF92EF92FF920F931F93CF93F0
:1055F000DF931F92CDB7DEB75C01E62EF42E122F9B
:10560000322FD62ED20E6D2D631B383048F00FEF9F
:1056100020E04F2DC5013983A8DE39813850F3CF02
:10562000612F687F6E0D177071F087E081278F5FA3
:1056300087700FEF10E001C0000F8A95EAF720E0B5
:105640004F2DC50192DE0F90DF91CF911F910F91E9
:10565000FF90EF90DF90BF90AF900895AF92BF9210
:10566000DF92EF92FF920F931F93CF93DF931F92DE
:10567000CDB7DEB75C01F62EE42E122F322FD42EDA
:10568000D20E4D2D431B383048F00FEF21E06F2D27
:10569000C50139836ADE39813850F3CF412F487F05
:1056A0004E0D177071F087E081278F5F87700FEFC5
:1056B00010E001C0000F8A95EAF721E06F2DC501C7
:1056C00054DE0F90DF91CF911F910F91FF90EF90DB
:1056D000DF90BF90AF900895DF92EF92FF920F930B
:1056E0001F93CF93DF93EC01162FF42EE22ED02ED2
:1056F000E7DA8823F9F02E2D4F2D612FCE0170DFD0
:105700002D2D4F2D612FCE01A9DF6FEF6E0D610F93
:105710002D2D4F2DCE01A2DF4FEF4D0D4F0D2E2D14
:10572000612FCE01DF91CF911F910F91FF90EF90EC
:10573000DF9056CFDF91CF911F910F91FF90EF90A7
:10574000DF900895EF92FF920F931F93CF93DF9313
:10575000EC01F62EE22E142F040F2E2D412F6F2D6B
:10576000CE013EDF1F5F0113F8CFDF91CF911F9174
:105770000F91FF90EF900895DF92EF92FF920F93B9
:105780001F93CF93DF93EC01162FF42EE22E98DABD
:10579000882329F02E2D4F2D612FCE01D3DFDF91ED
:1057A000CF911F910F91FF90EF90DF900895089592
:1057B000FC01148217821382128282ED94E091839D
:1057C0008083089522ED34E0FC013183208327811A
:1057D000222319F004960C94E3AB0895CF92DF9244
:1057E000EF92FF920F931F93CF93DF93EC018F966D
:1057F000DFDFCE01805B9F4FDBDF7E012FE6E20E15
:10580000F11C87016E013BE5C31A3EEFD30AC801C4
:10581000CFDF015E1F4F0C151D05C9F7FE01E955CD
:10582000FE4F89E1818314823596178ACE01865313
:105830009E4FBEDFFE01E558FD4F1082118212829D
:105840001382389610821182128213821A821B826E
:10585000188219826E0181E8C81A8DEFD80AF60104
:105860001082118212821382F80111821082FE01CD
:10587000E751FE4F108286E391E0F7019C011192FF
:1058800021503040E1F7FE01E957FD4F81E0808370
:105890001EA61DA60F94A10C68577C4E8F4F9F4FDC
:1058A000F6016083718382839383DF91CF911F918F
:1058B0000F91FF90EF90DF90CF900895FC0120E0D2
:1058C0003EE2DB014C91403241F0283011F430834C
:1058D0003196DB014C91408331962F5F6F5F7F4F94
:1058E0002B3079F7108208952F923F924F925F925A
:1058F0006F927F928F929F92AF92BF92CF92DF92E0
:10590000EF92FF920F931F93CF93DF93CDB7DEB744
:10591000C858D1090FB6F894DEBF0FBECDBF8C01B9
:105920006B017A014901CA57DF4F1882C658D0402F
:1059300084E0E80EF11C1801E1E12E0E311C380163
:10594000F8E76F1AFDEF7F0A580186E7A81A8DEF76
:10595000B80A80E4482E512C4C0E5D1EE4E04E0E39
:10596000511CA101BE016F5F7F4FC7010E944DAA6C
:1059700018160CF037C12C85322F3871303109F0F0
:105980009EC0F301808191810197029708F497C02E
:10599000BE016F5F7F4FCE0187589F4F8FDFA0966C
:1059A0001FAEA097F6018081811107C067EF72E0FA
:1059B000CE01815A9F4F0F945F1CB601CE01815AD0
:1059C0009F4F0F945F1CBE0167587F4FCE01815AD5
:1059D0009F4F0F945F1C67EF72E0CE01815A9F4F7B
:1059E0000F945F1CCE01805C9F4FE2DE21E0AE0190
:1059F00047585F4FB701C2010E94DAAD811139C02B
:105A0000F30180819181892BA1F5ECE3FFE1849181
:105A1000882341F09091C00095FFFCCF8093C60091
:105A20003196F5CFE9EFF2E08191882339F090913A
:105A3000C00095FFFCCF8093C600F6CF8091C000D8
:105A400085FFFCCF8AE08093C600FE01E758FF4F38
:105A50008191882339F09091C00095FFFCCF80930D
:105A6000C600F6CF8091C00085FFFCCF8AE080930E
:105A7000C6008BE1FE01EC5BFF4FDE0195960190C5
:105A80000D928A95E1F724968EAD9FAD24979CA345
:105A90008BA382ED94E09AA389A320E030E0AE01CD
:105AA0004F5D5F4FBE01615A7F4FC8011DDFCE01C0
:105AB000819688DECE01805C9F4F84DE52CF898143
:105AC000882309F48FC08E3209F44BCF8F3509F447
:105AD00048CFF80181898E3209F443CF8F3509F41C
